:020000040000FA
:020000000328D3
:040002000034003492
:0A000600831203138501831603170C
:100010008801890183160313850186018701880100
:1000200089010313831285018601870188018901F3
:1000300007100130880087146E2087106E200C3066
:10004000880087146E2087106E203C30880087144B
:100050006E2087106E2007106E2080308800692087
:1000600007146E20433088006920613088006920C1
:100070007330880069206130880069206E30880004
:1000800069206430880069207230880069206130FE
:100090008800692007106E20C0308800692007148E
:1000A0006E205030880069206130880069207530EA
:1000B000880069206C3088006920693088006920D8
:1000C0006E308800692007106E208030880069201B
:1000D0002B2887146E2087106E200800B0010A308C
:1000E000B2005030B000B00B7328B20B712808007A
:02400E00F42C90
:02401000FF3F70
:00000001FF
