:020000040000FA
:100000000510013086008514A4208510A4200A283C
:040010000034003484
:0C00140007309F0003138316860185014E
:100020008312851005100510013086008514A42068
:100030008510A4200C3086008514A4208510A420EF
:100040003C3086008514A4208510A4200510A4202F
:10005000803086009F200514A420433086009F2016
:10006000613086009F20733086009F2061308600BB
:100070009F206E3086009F20643086009F20723063
:1000800086009F20613086009F200510A4208A30C2
:1000900086009F200514A420413086009F207330E5
:1000A00086009F20743086009F20723086009F203B
:1000B000693086009F20643086009F200510A420B0
:1000C000C03086009F200514A420503086009F2059
:1000D000613086009F20753086009F206C3086003E
:1000E0009F20693086009F206E3086009F2005107B
:1000F000A420C73086009F200514A4204830860025
:100100009F20653086009F20723086009F206E30D1
:1001100086009F20613086009F206E3086009F20E1
:10012000643086009F20653086009F207A308600EC
:100130009F200510A420813086009F20262885144A
:10014000A4208510A4200800A0010A30A10050308E
:0C015000A000A00BA928A10BA728080004
:02400E00393F38
:00000001FF
